{
  "_format": "hh-sol-artifact-1",
  "contractName": "Test",
  "sourceName": "contracts/Test.sol",
  "abi": [
    {
      "inputs": [
        {
          "internalType": "string",
          "name": "_hashcode",
          "type": "string"
        }
      ],
      "stateMutability": "nonpayable",
      "type": "constructor"
    },
    {
      "inputs": [
        {
          "internalType": "address",
          "name": "owner",
          "type": "address"
        }
      ],
      "name": "getRecord",
      "outputs": [
        {
          "internalType": "string",
          "name": "_avatar",
          "type": "string"
        },
        {
          "internalType": "string",
          "name": "_username",
          "type": "string"
        },
        {
          "internalType": "string",
          "name": "_domain",
          "type": "string"
        },
        {
          "internalType": "string",
          "name": "_addr",
          "type": "string"
        }
      ],
      "stateMutability": "view",
      "type": "function"
    },
    {
      "inputs": [
        {
          "internalType": "address",
          "name": "",
          "type": "address"
        }
      ],
      "name": "records",
      "outputs": [
        {
          "internalType": "string",
          "name": "avatar",
          "type": "string"
        },
        {
          "internalType": "string",
          "name": "username",
          "type": "string"
        },
        {
          "internalType": "string",
          "name": "domain",
          "type": "string"
        },
        {
          "internalType": "string",
          "name": "addr",
          "type": "string"
        }
      ],
      "stateMutability": "view",
      "type": "function"
    },
    {
      "inputs": [
        {
          "internalType": "string",
          "name": "_avatar",
          "type": "string"
        },
        {
          "internalType": "string",
          "name": "_username",
          "type": "string"
        },
        {
          "internalType": "string",
          "name": "_domain",
          "type": "string"
        },
        {
          "internalType": "string",
          "name": "_addr",
          "type": "string"
        }
      ],
      "name": "regist",
      "outputs": [],
      "stateMutability": "nonpayable",
      "type": "function"
    },
    {
      "inputs": [
        {
          "internalType": "string",
          "name": "_addr",
          "type": "string"
        }
      ],
      "name": "setAddr",
      "outputs": [],
      "stateMutability": "nonpayable",
      "type": "function"
    },
    {
      "inputs": [
        {
          "internalType": "string",
          "name": "_domain",
          "type": "string"
        }
      ],
      "name": "setDomain",
      "outputs": [],
      "stateMutability": "nonpayable",
      "type": "function"
    }
  ],
  "bytecode": "0x60806040523480156200001157600080fd5b506040516200141438038062001414833981810160405281019062000037919062000294565b620000836040518060400160405280601f81526020017f4465706c6f79696e672061205465737420776974682068617368636f64653a0081525082620000a360201b6200093b1760201c565b80600090805190602001906200009b92919062000172565b5050620004e1565b620001458282604051602401620000bc9291906200031a565b6040516020818303038152906040527f4b5c4277000000000000000000000000000000000000000000000000000000007bffffffffffffffffffffffffffffffffffffffffffffffffffffffff19166020820180517bffffffffffffffffffffffffffffffffffffffffffffffffffffffff83818316178352505050506200014960201b60201c565b5050565b60008151905060006a636f6e736f6c652e6c6f679050602083016000808483855afa5050505050565b828054620001809062000406565b90600052602060002090601f016020900481019282620001a45760008555620001f0565b82601f10620001bf57805160ff1916838001178555620001f0565b82800160010185558215620001f0579182015b82811115620001ef578251825591602001919060010190620001d2565b5b509050620001ff919062000203565b5090565b5b808211156200021e57600081600090555060010162000204565b5090565b60006200023962000233846200037e565b62000355565b9050828152602081018484840111156200025257600080fd5b6200025f848285620003d0565b509392505050565b600082601f8301126200027957600080fd5b81516200028b84826020860162000222565b91505092915050565b600060208284031215620002a757600080fd5b600082015167ffffffffffffffff811115620002c257600080fd5b620002d08482850162000267565b91505092915050565b6000620002e682620003b4565b620002f28185620003bf565b935062000304818560208601620003d0565b6200030f81620004d0565b840191505092915050565b60006040820190508181036000830152620003368185620002d9565b905081810360208301526200034c8184620002d9565b90509392505050565b60006200036162000374565b90506200036f82826200043c565b919050565b6000604051905090565b600067ffffffffffffffff8211156200039c576200039b620004a1565b5b620003a782620004d0565b9050602081019050919050565b600081519050919050565b600082825260208201905092915050565b60005b83811015620003f0578082015181840152602081019050620003d3565b8381111562000400576000848401525b50505050565b600060028204905060018216806200041f57607f821691505b6020821081141562000436576200043562000472565b5b50919050565b6200044782620004d0565b810181811067ffffffffffffffff82111715620004695762000468620004a1565b5b80604052505050565b7f4e487b7100000000000000000000000000000000000000000000000000000000600052602260045260246000fd5b7f4e487b7100000000000000000000000000000000000000000000000000000000600052604160045260246000fd5b6000601f19601f8301169050919050565b610f2380620004f16000396000f3fe608060405234801561001057600080fd5b50600436106100575760003560e01c80632291938c1461005c578063469e9067146100785780634afc5378146100ab578063617fba04146100c7578063e5eab096146100fa575b600080fd5b61007660048036038101906100719190610b8a565b610116565b005b610092600480360381019061008d9190610b20565b610278565b6040516100a29493929190610cbd565b60405180910390f35b6100c560048036038101906100c09190610b49565b6104c8565b005b6100e160048036038101906100dc9190610b20565b610561565b6040516100f19493929190610cbd565b60405180910390f35b610114600480360381019061010f9190610b49565b6108a2565b005b83600160003373ffffffffffffffffffffffffffffffffffffffff1673ffffffffffffffffffffffffffffffffffffffff168152602001908152602001600020600001908051906020019061016c929190610a00565b5082600160003373ffffffffffffffffffffffffffffffffffffffff1673ffffffffffffffffffffffffffffffffffffffff16815260200190815260200160002060010190805190602001906101c3929190610a00565b5081600160003373ffffffffffffffffffffffffffffffffffffffff1673ffffffffffffffffffffffffffffffffffffffff168152602001908152602001600020600201908051906020019061021a929190610a00565b5080600160003373ffffffffffffffffffffffffffffffffffffffff1673ffffffffffffffffffffffffffffffffffffffff1681526020019081526020016000206003019080519060200190610271929190610a00565b5050505050565b600160205280600052604060002060009150905080600001805461029b90610e04565b80601f01602080910402602001604051908101604052809291908181526020018280546102c790610e04565b80156103145780601f106102e957610100808354040283529160200191610314565b820191906000526020600020905b8154815290600101906020018083116102f757829003601f168201915b50505050509080600101805461032990610e04565b80601f016020809104026020016040519081016040528092919081815260200182805461035590610e04565b80156103a25780601f10610377576101008083540402835291602001916103a2565b820191906000526020600020905b81548152906001019060200180831161038557829003601f168201915b5050505050908060020180546103b790610e04565b80601f01602080910402602001604051908101604052809291908181526020018280546103e390610e04565b80156104305780601f1061040557610100808354040283529160200191610430565b820191906000526020600020905b81548152906001019060200180831161041357829003601f168201915b50505050509080600301805461044590610e04565b80601f016020809104026020016040519081016040528092919081815260200182805461047190610e04565b80156104be5780601f10610493576101008083540402835291602001916104be565b820191906000526020600020905b8154815290600101906020018083116104a157829003601f168201915b5050505050905084565b6105076040518060400160405280600d81526020017f496e7075742069732027257327000000000000000000000000000000000000008152508261093b565b80600160003373ffffffffffffffffffffffffffffffffffffffff1673ffffffffffffffffffffffffffffffffffffffff168152602001908152602001600020600301908051906020019061055d929190610a00565b5050565b606080606080600160008673ffffffffffffffffffffffffffffffffffffffff1673ffffffffffffffffffffffffffffffffffffffff16815260200190815260200160002060000180546105b490610e04565b80601f01602080910402602001604051908101604052809291908181526020018280546105e090610e04565b801561062d5780601f106106025761010080835404028352916020019161062d565b820191906000526020600020905b81548152906001019060200180831161061057829003601f168201915b50505050509350600160008673ffffffffffffffffffffffffffffffffffffffff1673ffffffffffffffffffffffffffffffffffffffff168152602001908152602001600020600101805461068190610e04565b80601f01602080910402602001604051908101604052809291908181526020018280546106ad90610e04565b80156106fa5780601f106106cf576101008083540402835291602001916106fa565b820191906000526020600020905b8154815290600101906020018083116106dd57829003601f168201915b50505050509250600160008673ffffffffffffffffffffffffffffffffffffffff1673ffffffffffffffffffffffffffffffffffffffff168152602001908152602001600020600201805461074e90610e04565b80601f016020809104026020016040519081016040528092919081815260200182805461077a90610e04565b80156107c75780601f1061079c576101008083540402835291602001916107c7565b820191906000526020600020905b8154815290600101906020018083116107aa57829003601f168201915b50505050509150600160008673ffffffffffffffffffffffffffffffffffffffff1673ffffffffffffffffffffffffffffffffffffffff168152602001908152602001600020600301805461081b90610e04565b80601f016020809104026020016040519081016040528092919081815260200182805461084790610e04565b80156108945780601f1061086957610100808354040283529160200191610894565b820191906000526020600020905b81548152906001019060200180831161087757829003601f168201915b505050505090509193509193565b6108e16040518060400160405280600d81526020017f496e7075742069732027257327000000000000000000000000000000000000008152508261093b565b80600160003373ffffffffffffffffffffffffffffffffffffffff1673ffffffffffffffffffffffffffffffffffffffff1681526020019081526020016000206002019080519060200190610937929190610a00565b5050565b6109d38282604051602401610951929190610c86565b6040516020818303038152906040527f4b5c4277000000000000000000000000000000000000000000000000000000007bffffffffffffffffffffffffffffffffffffffffffffffffffffffff19166020820180517bffffffffffffffffffffffffffffffffffffffffffffffffffffffff83818316178352505050506109d7565b5050565b60008151905060006a636f6e736f6c652e6c6f679050602083016000808483855afa5050505050565b828054610a0c90610e04565b90600052602060002090601f016020900481019282610a2e5760008555610a75565b82601f10610a4757805160ff1916838001178555610a75565b82800160010185558215610a75579182015b82811115610a74578251825591602001919060010190610a59565b5b509050610a829190610a86565b5090565b5b80821115610a9f576000816000905550600101610a87565b5090565b6000610ab6610ab184610d43565b610d1e565b905082815260208101848484011115610ace57600080fd5b610ad9848285610dc2565b509392505050565b600081359050610af081610ed6565b92915050565b600082601f830112610b0757600080fd5b8135610b17848260208601610aa3565b91505092915050565b600060208284031215610b3257600080fd5b6000610b4084828501610ae1565b91505092915050565b600060208284031215610b5b57600080fd5b600082013567ffffffffffffffff811115610b7557600080fd5b610b8184828501610af6565b91505092915050565b60008060008060808587031215610ba057600080fd5b600085013567ffffffffffffffff811115610bba57600080fd5b610bc687828801610af6565b945050602085013567ffffffffffffffff811115610be357600080fd5b610bef87828801610af6565b935050604085013567ffffffffffffffff811115610c0c57600080fd5b610c1887828801610af6565b925050606085013567ffffffffffffffff811115610c3557600080fd5b610c4187828801610af6565b91505092959194509250565b6000610c5882610d74565b610c628185610d7f565b9350610c72818560208601610dd1565b610c7b81610ec5565b840191505092915050565b60006040820190508181036000830152610ca08185610c4d565b90508181036020830152610cb48184610c4d565b90509392505050565b60006080820190508181036000830152610cd78187610c4d565b90508181036020830152610ceb8186610c4d565b90508181036040830152610cff8185610c4d565b90508181036060830152610d138184610c4d565b905095945050505050565b6000610d28610d39565b9050610d348282610e36565b919050565b6000604051905090565b600067ffffffffffffffff821115610d5e57610d5d610e96565b5b610d6782610ec5565b9050602081019050919050565b600081519050919050565b600082825260208201905092915050565b6000610d9b82610da2565b9050919050565b600073ffffffffffffffffffffffffffffffffffffffff82169050919050565b82818337600083830152505050565b60005b83811015610def578082015181840152602081019050610dd4565b83811115610dfe576000848401525b50505050565b60006002820490506001821680610e1c57607f821691505b60208210811415610e3057610e2f610e67565b5b50919050565b610e3f82610ec5565b810181811067ffffffffffffffff82111715610e5e57610e5d610e96565b5b80604052505050565b7f4e487b7100000000000000000000000000000000000000000000000000000000600052602260045260246000fd5b7f4e487b7100000000000000000000000000000000000000000000000000000000600052604160045260246000fd5b6000601f19601f8301169050919050565b610edf81610d90565b8114610eea57600080fd5b5056fea2646970667358221220a0f6398da0ddfc0e27dfa9cfd51a539786c3bcc96b9b6389dbdfb226587c5e7c64736f6c63430008040033",
  "linkReferences": {},
  "deployedLinkReferences": {}
}