{
  "_format": "hh-sol-artifact-1",
  "contractName": "Test",
  "sourceName": "contracts/Test.sol",
  "abi": [
    {
      "inputs": [
        {
          "internalType": "string",
          "name": "_hashcode",
          "type": "string"
        }
      ],
      "stateMutability": "nonpayable",
      "type": "constructor"
    },
    {
      "inputs": [
        {
          "internalType": "address",
          "name": "owner",
          "type": "address"
        }
      ],
      "name": "getRecord",
      "outputs": [
        {
          "internalType": "string",
          "name": "_avatar",
          "type": "string"
        },
        {
          "internalType": "string",
          "name": "_username",
          "type": "string"
        },
        {
          "internalType": "string",
          "name": "_domain",
          "type": "string"
        },
        {
          "internalType": "string",
          "name": "_addr",
          "type": "string"
        }
      ],
      "stateMutability": "view",
      "type": "function"
    },
    {
      "inputs": [
        {
          "internalType": "address",
          "name": "",
          "type": "address"
        }
      ],
      "name": "records",
      "outputs": [
        {
          "internalType": "string",
          "name": "avatar",
          "type": "string"
        },
        {
          "internalType": "string",
          "name": "username",
          "type": "string"
        },
        {
          "internalType": "string",
          "name": "domain",
          "type": "string"
        },
        {
          "internalType": "string",
          "name": "addr",
          "type": "string"
        }
      ],
      "stateMutability": "view",
      "type": "function"
    },
    {
      "inputs": [
        {
          "internalType": "string",
          "name": "_avatar",
          "type": "string"
        },
        {
          "internalType": "string",
          "name": "_username",
          "type": "string"
        },
        {
          "internalType": "string",
          "name": "_domain",
          "type": "string"
        },
        {
          "internalType": "string",
          "name": "_addr",
          "type": "string"
        }
      ],
      "name": "register",
      "outputs": [],
      "stateMutability": "nonpayable",
      "type": "function"
    },
    {
      "inputs": [
        {
          "internalType": "string",
          "name": "_addr",
          "type": "string"
        }
      ],
      "name": "setAddr",
      "outputs": [],
      "stateMutability": "nonpayable",
      "type": "function"
    },
    {
      "inputs": [
        {
          "internalType": "string",
          "name": "_domain",
          "type": "string"
        }
      ],
      "name": "setDomain",
      "outputs": [],
      "stateMutability": "nonpayable",
      "type": "function"
    },
    {
      "inputs": [
        {
          "internalType": "string",
          "name": "_username",
          "type": "string"
        },
        {
          "internalType": "string",
          "name": "_domain",
          "type": "string"
        },
        {
          "internalType": "string",
          "name": "_addr",
          "type": "string"
        }
      ],
      "name": "updateRecord",
      "outputs": [],
      "stateMutability": "nonpayable",
      "type": "function"
    }
  ],
  "bytecode": "0x60806040523480156200001157600080fd5b50604051620015dc380380620015dc833981810160405281019062000037919062000294565b620000836040518060400160405280601f81526020017f4465706c6f79696e672061205465737420776974682068617368636f64653a0081525082620000a360201b62000a6c1760201c565b80600090805190602001906200009b92919062000172565b5050620004e1565b620001458282604051602401620000bc9291906200031a565b6040516020818303038152906040527f4b5c4277000000000000000000000000000000000000000000000000000000007bffffffffffffffffffffffffffffffffffffffffffffffffffffffff19166020820180517bffffffffffffffffffffffffffffffffffffffffffffffffffffffff83818316178352505050506200014960201b60201c565b5050565b60008151905060006a636f6e736f6c652e6c6f679050602083016000808483855afa5050505050565b828054620001809062000406565b90600052602060002090601f016020900481019282620001a45760008555620001f0565b82601f10620001bf57805160ff1916838001178555620001f0565b82800160010185558215620001f0579182015b82811115620001ef578251825591602001919060010190620001d2565b5b509050620001ff919062000203565b5090565b5b808211156200021e57600081600090555060010162000204565b5090565b60006200023962000233846200037e565b62000355565b9050828152602081018484840111156200025257600080fd5b6200025f848285620003d0565b509392505050565b600082601f8301126200027957600080fd5b81516200028b84826020860162000222565b91505092915050565b600060208284031215620002a757600080fd5b600082015167ffffffffffffffff811115620002c257600080fd5b620002d08482850162000267565b91505092915050565b6000620002e682620003b4565b620002f28185620003bf565b935062000304818560208601620003d0565b6200030f81620004d0565b840191505092915050565b60006040820190508181036000830152620003368185620002d9565b905081810360208301526200034c8184620002d9565b90509392505050565b60006200036162000374565b90506200036f82826200043c565b919050565b6000604051905090565b600067ffffffffffffffff8211156200039c576200039b620004a1565b5b620003a782620004d0565b9050602081019050919050565b600081519050919050565b600082825260208201905092915050565b60005b83811015620003f0578082015181840152602081019050620003d3565b8381111562000400576000848401525b50505050565b600060028204905060018216806200041f57607f821691505b6020821081141562000436576200043562000472565b5b50919050565b6200044782620004d0565b810181811067ffffffffffffffff82111715620004695762000468620004a1565b5b80604052505050565b7f4e487b7100000000000000000000000000000000000000000000000000000000600052602260045260246000fd5b7f4e487b7100000000000000000000000000000000000000000000000000000000600052604160045260246000fd5b6000601f19601f8301169050919050565b6110eb80620004f16000396000f3fe608060405234801561001057600080fd5b50600436106100625760003560e01c80630e24c52c14610067578063469e9067146100835780634afc5378146100b6578063617fba04146100d2578063e5eab09614610105578063f30562b614610121575b600080fd5b610081600480360381019061007c9190610d52565b61013d565b005b61009d60048036038101906100989190610c51565b61029f565b6040516100ad9493929190610e85565b60405180910390f35b6100d060048036038101906100cb9190610c7a565b6104ef565b005b6100ec60048036038101906100e79190610c51565b610588565b6040516100fc9493929190610e85565b60405180910390f35b61011f600480360381019061011a9190610c7a565b6108c9565b005b61013b60048036038101906101369190610cbb565b610962565b005b83600160003373ffffffffffffffffffffffffffffffffffffffff1673ffffffffffffffffffffffffffffffffffffffff1681526020019081526020016000206000019080519060200190610193929190610b31565b5082600160003373ffffffffffffffffffffffffffffffffffffffff1673ffffffffffffffffffffffffffffffffffffffff16815260200190815260200160002060010190805190602001906101ea929190610b31565b5081600160003373ffffffffffffffffffffffffffffffffffffffff1673ffffffffffffffffffffffffffffffffffffffff1681526020019081526020016000206002019080519060200190610241929190610b31565b5080600160003373ffffffffffffffffffffffffffffffffffffffff1673ffffffffffffffffffffffffffffffffffffffff1681526020019081526020016000206003019080519060200190610298929190610b31565b5050505050565b60016020528060005260406000206000915090508060000180546102c290610fcc565b80601f01602080910402602001604051908101604052809291908181526020018280546102ee90610fcc565b801561033b5780601f106103105761010080835404028352916020019161033b565b820191906000526020600020905b81548152906001019060200180831161031e57829003601f168201915b50505050509080600101805461035090610fcc565b80601f016020809104026020016040519081016040528092919081815260200182805461037c90610fcc565b80156103c95780601f1061039e576101008083540402835291602001916103c9565b820191906000526020600020905b8154815290600101906020018083116103ac57829003601f168201915b5050505050908060020180546103de90610fcc565b80601f016020809104026020016040519081016040528092919081815260200182805461040a90610fcc565b80156104575780601f1061042c57610100808354040283529160200191610457565b820191906000526020600020905b81548152906001019060200180831161043a57829003601f168201915b50505050509080600301805461046c90610fcc565b80601f016020809104026020016040519081016040528092919081815260200182805461049890610fcc565b80156104e55780601f106104ba576101008083540402835291602001916104e5565b820191906000526020600020905b8154815290600101906020018083116104c857829003601f168201915b5050505050905084565b61052e6040518060400160405280600d81526020017f496e70757420697320272573270000000000000000000000000000000000000081525082610a6c565b80600160003373ffffffffffffffffffffffffffffffffffffffff1673ffffffffffffffffffffffffffffffffffffffff1681526020019081526020016000206003019080519060200190610584929190610b31565b5050565b606080606080600160008673ffffffffffffffffffffffffffffffffffffffff1673ffffffffffffffffffffffffffffffffffffffff16815260200190815260200160002060000180546105db90610fcc565b80601f016020809104026020016040519081016040528092919081815260200182805461060790610fcc565b80156106545780601f1061062957610100808354040283529160200191610654565b820191906000526020600020905b81548152906001019060200180831161063757829003601f168201915b50505050509350600160008673ffffffffffffffffffffffffffffffffffffffff1673ffffffffffffffffffffffffffffffffffffffff16815260200190815260200160002060010180546106a890610fcc565b80601f01602080910402602001604051908101604052809291908181526020018280546106d490610fcc565b80156107215780601f106106f657610100808354040283529160200191610721565b820191906000526020600020905b81548152906001019060200180831161070457829003601f168201915b50505050509250600160008673ffffffffffffffffffffffffffffffffffffffff1673ffffffffffffffffffffffffffffffffffffffff168152602001908152602001600020600201805461077590610fcc565b80601f01602080910402602001604051908101604052809291908181526020018280546107a190610fcc565b80156107ee5780601f106107c3576101008083540402835291602001916107ee565b820191906000526020600020905b8154815290600101906020018083116107d157829003601f168201915b50505050509150600160008673ffffffffffffffffffffffffffffffffffffffff1673ffffffffffffffffffffffffffffffffffffffff168152602001908152602001600020600301805461084290610fcc565b80601f016020809104026020016040519081016040528092919081815260200182805461086e90610fcc565b80156108bb5780601f10610890576101008083540402835291602001916108bb565b820191906000526020600020905b81548152906001019060200180831161089e57829003601f168201915b505050505090509193509193565b6109086040518060400160405280600d81526020017f496e70757420697320272573270000000000000000000000000000000000000081525082610a6c565b80600160003373ffffffffffffffffffffffffffffffffffffffff1673ffffffffffffffffffffffffffffffffffffffff168152602001908152602001600020600201908051906020019061095e929190610b31565b5050565b82600160003373ffffffffffffffffffffffffffffffffffffffff1673ffffffffffffffffffffffffffffffffffffffff16815260200190815260200160002060010190805190602001906109b8929190610b31565b5081600160003373ffffffffffffffffffffffffffffffffffffffff1673ffffffffffffffffffffffffffffffffffffffff1681526020019081526020016000206002019080519060200190610a0f929190610b31565b5080600160003373ffffffffffffffffffffffffffffffffffffffff1673ffffffffffffffffffffffffffffffffffffffff1681526020019081526020016000206003019080519060200190610a66929190610b31565b50505050565b610b048282604051602401610a82929190610e4e565b6040516020818303038152906040527f4b5c4277000000000000000000000000000000000000000000000000000000007bffffffffffffffffffffffffffffffffffffffffffffffffffffffff19166020820180517bffffffffffffffffffffffffffffffffffffffffffffffffffffffff8381831617835250505050610b08565b5050565b60008151905060006a636f6e736f6c652e6c6f679050602083016000808483855afa5050505050565b828054610b3d90610fcc565b90600052602060002090601f016020900481019282610b5f5760008555610ba6565b82601f10610b7857805160ff1916838001178555610ba6565b82800160010185558215610ba6579182015b82811115610ba5578251825591602001919060010190610b8a565b5b509050610bb39190610bb7565b5090565b5b80821115610bd0576000816000905550600101610bb8565b5090565b6000610be7610be284610f0b565b610ee6565b905082815260208101848484011115610bff57600080fd5b610c0a848285610f8a565b509392505050565b600081359050610c218161109e565b92915050565b600082601f830112610c3857600080fd5b8135610c48848260208601610bd4565b91505092915050565b600060208284031215610c6357600080fd5b6000610c7184828501610c12565b91505092915050565b600060208284031215610c8c57600080fd5b600082013567ffffffffffffffff811115610ca657600080fd5b610cb284828501610c27565b91505092915050565b600080600060608486031215610cd057600080fd5b600084013567ffffffffffffffff811115610cea57600080fd5b610cf686828701610c27565b935050602084013567ffffffffffffffff811115610d1357600080fd5b610d1f86828701610c27565b925050604084013567ffffffffffffffff811115610d3c57600080fd5b610d4886828701610c27565b9150509250925092565b60008060008060808587031215610d6857600080fd5b600085013567ffffffffffffffff811115610d8257600080fd5b610d8e87828801610c27565b945050602085013567ffffffffffffffff811115610dab57600080fd5b610db787828801610c27565b935050604085013567ffffffffffffffff811115610dd457600080fd5b610de087828801610c27565b925050606085013567ffffffffffffffff811115610dfd57600080fd5b610e0987828801610c27565b91505092959194509250565b6000610e2082610f3c565b610e2a8185610f47565b9350610e3a818560208601610f99565b610e438161108d565b840191505092915050565b60006040820190508181036000830152610e688185610e15565b90508181036020830152610e7c8184610e15565b90509392505050565b60006080820190508181036000830152610e9f8187610e15565b90508181036020830152610eb38186610e15565b90508181036040830152610ec78185610e15565b90508181036060830152610edb8184610e15565b905095945050505050565b6000610ef0610f01565b9050610efc8282610ffe565b919050565b6000604051905090565b600067ffffffffffffffff821115610f2657610f2561105e565b5b610f2f8261108d565b9050602081019050919050565b600081519050919050565b600082825260208201905092915050565b6000610f6382610f6a565b9050919050565b600073ffffffffffffffffffffffffffffffffffffffff82169050919050565b82818337600083830152505050565b60005b83811015610fb7578082015181840152602081019050610f9c565b83811115610fc6576000848401525b50505050565b60006002820490506001821680610fe457607f821691505b60208210811415610ff857610ff761102f565b5b50919050565b6110078261108d565b810181811067ffffffffffffffff821117156110265761102561105e565b5b80604052505050565b7f4e487b7100000000000000000000000000000000000000000000000000000000600052602260045260246000fd5b7f4e487b7100000000000000000000000000000000000000000000000000000000600052604160045260246000fd5b6000601f19601f8301169050919050565b6110a781610f58565b81146110b257600080fd5b5056fea2646970667358221220f324606385fb9af6edae6d7db8696d2eb51d48aa4ba871d236d16716c9898a5264736f6c63430008040033",
  "linkReferences": {},
  "deployedLinkReferences": {}
}